:1000000000000120750300005D0300003D100000AA
:1000100061030000630300006503000000000000AE
:100020000000000000000000000000006703000066
:1000300069030000000000006B0300006D03000076
:10004000712C00006F030000092D0000D92C000066
:10005000E52C00006F0300005528000095300000DB
:10006000CD330000E1330000F53300005D300000C7
:100070006F030000812F00006F0300006F0300007A
:10008000213A000001050000052E0000FD2C0000B3
:100090009D050000193200001F32000025320000CB
:1000A0002B32000031320000093400001D34000002
:1000B000D52D0000F52A000000000000000000001F
:1000C0006F030000E52D0000F52D0000F12C00006D
:1000D0006D300000D92900006F030000000000000F
:1000E0000000000000000000000000000000000010
:1000F0000000000000000000000000000000000000
:1001000000000000000000000000000000000000EF
:1001100000000000000000000000000000000000DF
:1001200000000000000000000000000000000000CF
:1001300000000000000000000000000000000000BF
:1001400000000000000000000000000000000000AF
:10015000000000000000000000000000000000009F
:10016000000000000000000000000000000000008F
:10017000000000000000000000000000000000007F
:10018000000000000000000000000000000000006F
:10019000000000000000000000000000000000005F
:1001A000000000000000000000000000000000004F
:1001B000000000000000000000000000000000003F
:1001C000000000000000000000000000000000002F
:1001D000000000000000000000000000000000001F
:1001E000000000000000000000000000000000000F
:1001F00000000000000000000000000000000000FF
:10020000354936480A1A02D0072291438D463449AF
:1002100034480A1A06D00722914381F30988022242
:1002200082F3148830483149314A00F044F83148AB
:100230003149324A00F03FF831483249324A00F041
:100240003AF832483249334A00F035F832483349F7
:10025000334A00F030F833483349344A00F02BF881
:1002600033483449344A00F026F8344834490022EF
:1002700000F02CF833483449002200F027F83348C6
:100280003349091A082902DB002202604160314A21
:1002900090471F481F49884205D00268043003B4C4
:1002A000904703BCF7E700208646EC46002000217B
:1002B000294A9047FEE7884207D0521A05D00378B2
:1002C00001300B700131013AF9D17047884202D0F8
:1002D00002700130FAE770470000012000E00020C2
:1002E0000000012000000120D88200003000002022
:1002F00048000020D4030000D4030000F0530000A5
:10030000D882000030000020300000207854000027
:1003100078540000785400007854000078540000AD
:10032000785400007854000078540000D782000010
:10033000F082000048000020480000204800002013
:10034000F0150020F0150020F0150020F015002019
:10035000F03500209D030000B93C0000FEE7FEE7F9
:10036000FEE7FEE7FEE7FEE7FEE7FEE7FEE7FEE765
:10037000704700BF1048804710484FF0070188437E
:1003800085460F4880470F48016841F470010160BD
:10039000BFF34F8FBFF36F8FFFF732BF0A480B4990
:1003A0000B4A884207D0521A05D0037801300B70EF
:1003B0000131013AF9D170477103000000000120BA
:1003C0002548000088ED00E04854000000000020AF
:0403D00030000020D9
:1003D40004F0E6BF03F07CBB0021084603F03EBBFB
:1003E40010F1360F0AD058B148F2165248F21153A0
:1003F40010F1380F14BF10461846704748F21450D5
:10040400704708B50846114602F0BAF8002008BD46
:1004140030B5044685B0002002F072F8054678B97C
:10042400201D039004F043F90649039800952B46D8
:100434002A4604F0B2F905B0BDE83040FFF7D0BF5A
:1004440005B030BD0704000008B5043004F034F9E9
:1004540002F076F8002008BD1FB50021039001AA20
:1004640044F20100CDE9011100F004F805B05DF893
:1004740004FB000072B6094B1B68DB0700D500BE05
:10048400BFF34F8F0649074BCA6802F4E062134377
:10049400CB60BFF34F8F00BFFDE700BFF0ED00E07E
:1004A40000ED00E00400FA05024B4FF43C6043F019
:1004B400010318478054000038B50C4B0C4C4FF422
:1004C4000032C3F8802001254FF48033C4F8483348
:1004D400C4F808336560FFF7E7FF064BA560002406
:1004E4001C60FFF7E1FF044B1C7038BD00E100E025
:1004F400001001406401002055010020F8B51F4B95
:100504001F491B680025C1F84051C1F84451C1F886
:100514004851C1F84C51C1F80051C1F804514BB3D2
:10052400D1F8044517490968641A24F07F442F461A
:100534001A68A24209D8A41A15441A7CDE691AB1B1
:10054400D3E905201F749047AEB90F4A0F4B1178B9
:100554001B788B4205D10133DBB2022B08BF002389
:10056400137012780A4B43F822500A4B4FF480124E
:10057400C3F80021F8BD3346DAE700BF6801002064
:10058400001001406401002061010020600100208E
:100594005801002000E100E02DE9F04FA24AA349F0
:1005A40013780978A24D994285B03CD00133DBB26F
:1005B400022B08BF002313709E4912789E4B0F68CC
:1005C40053F822003B1823F07F4300220B602B6872
:1005D40016461446944613B942B12B6006E01968D6
:1005E40081420ED902B12B60091A196001272B68C8
:1005F400DFF84CA201934FF00008BEB9DFF848B20F
:1006040062E0401A0C44D968D3F81CE0C3F800C077
:1006140031B13A1922F07F42C3E90121DE611E465D
:1006240073460122D7E700263746E0E73446F669E9
:10063400804A63681268DFF814C2A068991A21F02E
:100644007F41614500F2A8800144216001222274A7
:100654002A680023C4E90133E361002A40F0A5803D
:100664002C60CAE79BF802105A1CD2B291428BF854
:10067400002004BF00228BF80020182202FB03B3E1
:100684002A6819799C68022977D0032900F08180AF
:10069400012919D1207CB8B9D3E90312A2605A699F
:1006A400E2609A69654BA2611B78002B0CBF0B4674
:1006B40003466360BCE78C4200F094808946C969B4
:1006C4000029F8D1002323749BF800309BF8012003
:1006D4009A42C7D12B68B8F1000F04D1019A9A420B
:1006E40001D1002F43D0002B79D0D3F800A0544D72
:1006F400504BD5F804751C68DFF854813E1B98F8FC
:10070400003026F07F4603369BB94FF48033C5F89A
:100714004433C5F804334B4B4FF400324FF0010916
:10072400C3F880211A60C5F80090FFF7BDFE88F871
:100734000090B2452CBF5444A41924F07F44C5F85A
:100744004045D5F80435DB1B23F07F43E41B03331A
:1007540024F07F44A3420AD9D5F80435C5F84035BE
:10076400FFF7A2FE374B4FF40032C3F80021334B9E
:1007740000221A7005B0BDE8F08F114691469FE73C
:100784001174D2690123002AFAD1002B9CD02A606B
:100794009AE700231946F6E7D31A23F07F438342EE
:1007A40034BFC31A0023236050E7216813689942B9
:1007B40013D8591A1160E26152E7091AD8691A4626
:1007C40038B1034618688842F7D3401A18601846AF
:1007D40013462160E061DC610FE71346F2E7FFF79F
:1007E4006BFEC4E74C4511D1D3692B6073B9DFF8B4
:1007F40044E00120CDE90212CAF80800CEF8003026
:100804000E4B1870FFF750FEDDE902120B68C96940
:10081400C9F81C1011B1086803440B602B6893429B
:1008240018BF4FF001084DE760010020610100206E
:1008340068010020640100205801002054010020B8
:100844000010014000E100E048000020FEFF7F00AE
:100854005501002072B6024A1368013313607047D1
:100864006C010020034A1368013B136003B962B6AC
:10087400704700BF6C010020FFF7ECBFFFF7F2BF29
:1008840070B5064D0646002455F8043B0BB13046BE
:1008940098470134042CF7D170BD00BF7C010020BF
:1008A4000B4A0C4B5188142000FB0131CB6833B93F
:1008B4000420496810700122074801F0B3BB0749BE
:1008C4000523137002238B80012209680023F3E7B8
:1008D40094010020AC01002000000020E801002069
:1008E40007B5002305490093054A0968054808230C
:1008F40001F06AFB03B05DF804FB00BFE8010020CF
:10090400945400000000002007B500230146009322
:10091400034A0448082301F057FB03B05DF804FBC5
:100924008C5400000000002013B500230C460093F3
:100934000146084A0848042301F046FB38B9074930
:10094400142303FB04140123237402B010BD0E20EE
:10095400FBE700BF8854000000000020AC01002029
:1009640037B50A480A4B42689C881968538803259E
:10097400033305709BB2002000909B0001EB8401BF
:10098400044801F021FB03B030BD00BF94010020F6
:10099400E8010020000000204388033300EB8303B8
:1009A400994209D382884FF6FF739A4206D0008891
:1009B400B0FA80F040097047022070470120704768
:1009C40038B5144B14220D4602FB00302B684468E2
:1009D40004F58051A3B15C88033403EB84048C4296
:1009E40015D22368013312D02046FFF7D5FF012822
:1009F40008D002280BD00028F1D12C60012038BD8A
:100A04000834ECE76388033304EB8304E7E700204E
:100A1400F5E700BFAC010020426873B504460D46FB
:100A240062B3234BD9688A4228D31B699A4225D8DA
:100A340012F0030322D11F490089098988421DD17C
:100A440020689168884219D11B494868824203D9B9
:100A540000F5805082420DD389698A420CD901F590
:100A640080518A4208D201222A80B3FA83F04009D5
:100A740002B070BD1A46F7E70A23F6E700232B807D
:100A84001E460196288801A9FFF79AFF30B92B88E2
:100A940001339BB2012B2B80F3D9E9E7019B226838
:100AA40099689142EED16360024B1B892381DFE791
:100AB4000000002094010020AC0100202DE9F8433F
:100AC4001C461C4B1B7806460F4615466BB372B387
:100AD4006CB3DFF868804FF01409A388012B01D9A7
:100AE4000A2020E009FB03F318F803302BB9A0888F
:100AF4002146FFF765FF20B92060A3880133A38056
:100B0400EBE723681EB1998832889142EFD11FB177
:100B140019883A889142EAD19A68C5E90023064BBC
:100B24001B892B810020BDE8F8830220FBE7052008
:100B3400F9E700BF8C01002094010020AC010020E3
:100B440008B5074B5888191DFFF73AFF18B1BDE8DF
:100B54000840FFF705BFBDE80840FFF7A1BE00BF8E
:100B6400940100202DE9F04FA14FDFF8A89289B03D
:100B74000646B8463B6823B99E48494600F092FAB7
:100B84003860D8F8005029784B1E052B07D8DFE8C9
:100B940013F0210079007900090109015E010F2495
:100BA4001422002103A804F055F841F61D539C4279
:100BB40008BF0024D8F8003004941A78013A052AB2
:100BC40000F2EF81DFE812F0DB01DF01FF010F0229
:100BD4001B02250226B1884B00225A600124DFE75C
:100BE4002B79032B1DD8DFE803F015022A3583493E
:100BF4000B78022B084619D00B7D022B4FF0010312
:100C040016D114225343C2180020C8545068FFF769
:100C14007BFE03E001232B71FFF762FE002800F046
:100C2400BC80754B00225A600E24B9E70023E8E724
:100C3400714A13700023536041F61D54B0E77049A4
:100C44007048002302222B718A800968012201F076
:100C5400E9F9E3E76A4C00262E712068674DFFF737
:100C640053FE694BD4F800C05A8814235343EA183E
:100C7400EE5451682160A188C2F804C01181022297
:100C8400A280CBE7B5F814A0AA7DDFF870B1AEB1AD
:100C9400022AEB8806D9142101FB0AB1DA1C08895F
:100CA40002440A81142202FB0ABAC3F57F43BAF84C
:100CB4000A20FD331344AAF80A308FE7142303FBF8
:100CC4000AB318895C6804EB8004062A68D8DFE854
:100CD40002F0274D35431D59040041F61D54AA7DE9
:100CE400EB88022A06D9142101FB0AB1DA1C08890F
:100CF40002440A81142202FB0ABAC3F57F43BAF8FC
:100D04000A20FD331344AAF80A3049E73F48404912
:100D140000234360AB690360FFF77EFE002859D0CF
:100D24000223AB75002300930423EA1821463548B7
:100D340001F04AF9002830D00E24D0E72B69002BAB
:100D440014BF03230123AB750023009305F10C02A8
:100D5400042304F10801EAE70123AB750022EB88C0
:100D640000922A699B0004F10C01E0E703290CBFFF
:100D740005230623AB7500230093042305F1080221
:100D8400E118D4E70623AB75214B19881F4B58682B
:100D9400FFF7CAFD04460028A1D109B0BDE8F08FD1
:100DA4000F249CE7002E7FF419AF2B79012B33D04D
:100DB400022B3FF441AF002B7FF4F1AE02232B71E1
:100DC4000DF10A01EB68039303A8CDE90466FFF76C
:100DD40023FE08B90A24E3E60498BDF80A108388C0
:100DE400EB8003882B81FFF79FFD044625E000BFBD
:100DF400A8010020D40100208C010020AC010020B7
:100E0400E80100200000002094010020700100206F
:100E1400F0010020A40100207F4B03AA3146A81D45
:100E2400FFF74CFE7C4B044658B999880498FFF7A9
:100E34007BFD04460A2C3FF4FFAE002C7FF4B0AED9
:100E4400ABE708223146184603F004FFF2E7002E10
:100E54007FF4C4AE714B1A7BB2B11E731A78013A97
:100E6400062A3FF69CAE01A151F822F0170F0000AC
:100E74003D0F00005B0F0000610F0000A30B00009A
:100E8400670F0000790F00001A78072AE6D801A13D
:100E940051F822F0B90E0000610E0000610E00004E
:100EA400DF0E0000F30E0000130F0000130F00000C
:100EB400DB0E00001A895A4901321A8100225A8035
:100EC4001A730A78B2FA82F252099A720A7DB2FA55
:100ED40082F25209DA72012207E0524958688A887C
:100EE4004088033202448A8002221A70B6E74C4CCE
:100EF4005A884C49142505FB02420868546850601E
:100F04008888108102228A800C600622EDE707227D
:100F1400EBE79A7A32B9DA7A8AB900221A705A80DF
:100F24005A6089E63E4900229A72CA68002AF2D1C0
:100F3400097C0029EFD05A80FFF702FE55E7002212
:100F4400DA72374A116A0029E7D192F82420002A7C
:100F5400E3D00122EFE7FFF703FD46E7FFF7A0FC2C
:100F640043E72F4A5B88142101FB03235868FFF7EA
:100F7400CBFC3AE700225A60FFF7B2FC35E70023C6
:100F84008DF80C300DE001228DF80C201A89ADF893
:100F940018209A88DB680593ADF81A2000238DF891
:100FA4001C3003A8FFF76CFC002649461E48C8F80D
:100FB400006000F0A2F81D48012100F0AEF80028FE
:100FC4007FF4D8ADE9E602228DF80C201A89ADF839
:100FD40018209A88ADF81A20DA689B7D05929A1F2A
:100FE40053425341DBE703228DF80C20DA88ADF835
:100FF40018201A89DB68ADF81A200593D1E704227A
:101004008DF80C20DB88ADF818300023ADF81A30C9
:10101400F3E70523B4E700BFF401002094010020A6
:10102400AC010020E8010020D4010020E4010020EC
:101034004068FFF797BD00001EF0040F1CBFEFF3DC
:1010440009800AE0EFF308800549064A884201D87E
:10105400904202D88D464FF00000034B1847000021
:101064000000012000E0002095100000BFF34F8F26
:101074000549064BCA6802F4E0621343CB60BFF330
:101084004F8F00BFFDE700BF00ED00E00400FA054C
:1010940008B5034B9A6ADB6AFFF7E8FF08BD00BF97
:1010A40000ED00E037B550E8023F1FFAA3F5C4880D
:1010B400A54202BFBFF32F8F00220DE0C48925444F
:1010C4008489A54228BF2D1BC3EA054540E8025484
:1010D400002CE8D14FF001028DF803200193019B0D
:1010E4009DF803200B6002F0FF0322B14B880068D7
:1010F400184403B030BD1846FBE70A884B889A426F
:1011040009D150E8022FC2EA224240E80223002B10
:10111400F7D1012070470020704710B5034653E80B
:10112400002FA2EB010043E8000494F0000FF6D175
:1011340010BD00002DE9F0478368D3F84831C3F3AC
:1011440040059B0788B0074606D50022114608B023
:10115400BDE8F04700F060BA012906D91E4A022111
:1011640008B0BDE8F04700F023BA1C4C1C4EDFF871
:1011740074A04FF06408A946361B1823B6FBF3F697
:10118400AE4204F1180402D108B0BDE8F08754F867
:10119400180C54E90523017900689A1A1B1ADBB26A
:1011A400039308FB03F3B3FBF2F3CDE9019334F8A3
:1011B400043C0093CDE9061254F8083C11FB08F1F5
:1011C4003846B1FBF2F1CDE904215246082100F082
:1011D400EFF90135D4E700BF9C5400000854000027
:1011E40008540000AF54000008B103F08DBD7047EF
:1011F4002DE9F843089E1C460D46E9B9194E1A4BD1
:101204009B1BB2EBD30F4FEAD30804D2174F07EB63
:101214008207A84501D1002309E07368386819687A
:1012240003F04BFDB146083620B9D9F804302360E9
:10123400BDE8F8830135ECE70028ECD00178436879
:1012440039B13146104698473368002BE3D0266005
:10125400EEE7110103EB02125B58002BDBD0226096
:10126400E6E700BF105400004854000014000020BA
:1012740007B58368B9B1DA7E8A4211D00B4A00926D
:1012840033228DF8042001F12F028DF805206D2200
:10129400ADF80620D9766A460549006900F0C7FC16
:1012A40003B05DF804FB034AD976F5E71B5B313BD9
:1012B40065560000FF59000007B583681A7F8A420B
:1012C40013D045F61B32ADF8002034228DF80220ED
:1012D40001F12F0219778DF803206D22ADF8042057
:1012E400034900696A4600F0A2FC03B05DF804FB00
:1012F40065560000014900F09ABC00BF3B55000050
:101304000A460068014900F092BC00BFC4550000C1
:1013140009B1FFF7F5BF70472DE9F34105460F46C4
:101324001446002614B902B0BDE8F0816868036869
:101334002246D3F80C80B91901ABC047019B1E4467
:10134400E41A002BEED1AB681A78032AEAD0D3F85A
:1013540048219206FBD5B3F848216FF34512A3F850
:101364004821DFE72DE9F04F2DED028B044683B0D1
:1013740090460E46002973D00025705D03F00AFCE8
:1013840050BB04F1100308EE103A5FFA88FB3046B4
:10139400FFF72AFFA36893F81990401BA9EB0809EB
:1013A40006EB050A484553464FF0000717D913F8D2
:1013B400010BCDE9003303F0EDFB009B20B113F8E2
:1013C400012C0A2A34D0B946A268507E08EB0702E1
:1013D40090422CD90137EAE70135CEE70137B8420C
:1013E40019D013F8012B0A2A05EB0709F6D1206955
:1013F40000F012FC3A46274651462046FFF78CFF80
:1014040057F8100FFFF776FF5FFA88F1384609F1B5
:101414000105FFF77DFF2069711900F008FC2069C0
:1014240003B0BDEC028BBDE8F04FFFF763BF4F463E
:10143400206900F0F1FB3A4651462046FFF76CFF65
:101444003D44705D03F0A6FB40B92069FFF752FFED
:1014540018EE100A5946FFF75BFF98E70135F0E7ED
:1014640003B0BDEC028BBDE8F08F00000A4619B151
:101474000249006800F0DBBB704700BFCA5500009A
:101484000A4619B10249006800F0D1BB704700BF99
:10149400D05500002DE9F34105468068424F0024F1
:1014A40080222146A0308DF8034003F0D3FB3F494E
:1014B400286900F0BCFB286900F0AEFB4FF47A7693
:1014C40047F00107686803680122D3F810800DF122
:1014D400030101ABC047019B5BB94FF6C010B8478D
:1014E400019B002BEED1013EB6B2002EEAD10D20B5
:1014F40035E09DF80330AA681B2B48D092F8A01061
:101504001B29EDD1522B42D11444002384F8A0307E
:1015140092F8A1105B291FD102F1A20602211D46F7
:1015240016F8010B4C1C3B28E1B264B21AD1002C12
:1015340020DB01F1A0041444002314F8010BD8B9F2
:10154400FA2B28BFFA23FA2D13752B4628BFFA234A
:10155400937582F8A00002E082F8A0300B2002B05C
:10156400BDE8F08105EB850300EB4303303B8029A4
:101574009DB2D5D10C20F2E703EB830300EB4300CB
:101584004E1C303883B23006F1B2F3D4D5E71119CA
:101594000134E4B2092C81F8A030A1D9002382F8E7
:1015A400A0300420DBE700BF205A0000125A0000DC
:1015B4000CB473B506AB0D4653F8046B8168019304
:1015C400D1F848315B07044620D5CB7EAB421DD011
:1015D40002221B31684603F014FB29462046FFF71C
:1015E40047FE206901AA314600F0A0FB9DF80010D7
:1015F4002046FFF73DFE9DF8011011B12046FFF78C
:101604005BFE02B0BDE8704002B07047206901AAD9
:10161400314600F08BFBF4E72DE9F04F07468BB021
:101624007F48DFF81C8291460D4603F06DFB0646A9
:101634007C4803F069FBBB68CDF80080301A7A4A15
:101644005B68082186B23846FFF7B2FFBB6858686A
:10165400FFF7CAFD0446404603F056FBBB6820442E
:1016640082B299683846FFF77DFE704A00213846F9
:10167400FFF79EFFB9F1000F07D035B14FF00C080A
:10168400AA4608FB0958C24529D1664803F03CFB29
:10169400841C3444A4B2624B654A009304F10308E9
:1016A4000821384623461FFA88F8FFF781FF61496D
:1016B40042463846FFF756FE45B10C2606FB09564E
:1016C400DFF880B1DFF86891B54222D1BB68D3F866
:1016D4000C80B8F1000F5AD10BB0BDE8F08FDAF8E6
:1016E4000400FFF781FD0446DAF80000FFF77CFDF3
:1016F4002044B0420AD9DAF80400FFF775FD044625
:10170400DAF80000FFF770FD204486B20AF10C0AF3
:10171400B9E7D5E9002393B34AB30192414A009251
:1017240008215A463846FFF743FF6868FFF75CFD17
:1017340003902868FFF758FD82463A4803F0E4FA1C
:10174400039AA21AA2EB0A03181AC1B207F11000F5
:10175400FFF7DEFD384938693A2200F068FAA968D3
:1017640089B142463846FFF7FDFD0C35ACE70093DE
:1017740023464A4608213846FFF71AFFEFE7002AB6
:10178400EDD00092F4E73869FFF7B4FDEDE70022ED
:101794000592164606AD009505AB0121404602F1BF
:1017A4000109FFF725FD059C5CB12068FFF71CFDCE
:1017B400B04204D9059B1868FFF716FD86B24A4665
:1017C400E9E7B9F1010F87D01C4ADFF864A021468C
:1017D4003846FFF7EDFE2246B41CA4B205AB0095D3
:1017E4000121404602F10109FFF702FD059B002B90
:1017F4003FF472AF1B6800930821234652463846D3
:10180400FFF7D6FE059B596831B1721D92B2384676
:10181400FFF7A8FD4A46E1E73869FFF76BFDF9E7F2
:10182400265A00008C5B00005F56000068560000DA
:10183400725600007A560000DC55000096560000EF
:10184400175A00008D56000000221146FFF7E4BE2F
:10185400022910B5044608D18368D3F848319B07A0
:1018640003D5BDE81040FFF7EFBF2069054A0649DC
:1018740000F0DDF92069054A0349BDE8104000F095
:10188400D6B900BF035A000065560000075A00008D
:10189400012906D0022906D18368D3F848319B0771
:1018A40001D5FFF7D1BF024A0221FFF781BE00BF75
:1018B4001156000038B58368D3F84821C2F34005B7
:1018C40092070C4606D500221146FFF7A5FE2C46CA
:1018D400204638BD0029FBD05B68024A0221FFF78D
:1018E40067FEF5E7A4560000012937B505461446FE
:1018F40004D103B0BDE83040FFF7A6BF023918BFDA
:101904000121FFF7D7FF48B963680193044B0093A3
:10191400044A236802212846FFF74AFE03B030BD7B
:10192400C8560000BF560000012907B504D103B012
:101934005DF804EBFFF788BF02290AD153680193CD
:10194400084B00931368084AFFF732FE03B05DF8B2
:1019540004FB8CBF0121002103B05DF804EBFFF709
:10196400A9BF00BFC8560000BF560000013910B51A
:1019740018BF01210446FFF79DFF40B9044A0549F9
:10198400206900F054F9A36845F218021A8310BDC7
:101994000C5A00006556000001292DE9F341044664
:1019A400154637D18668FFF775FD38BBA36804F187
:1019B4001005FA21284693F814809F7DFFF7A0FCB8
:1019C40020691E49FA2200F032F92046FFF762FD31
:1019D400A0B9A368197D7176A368A1EB08019B7D6A
:1019E40033762846C9B2FFF741FD317EC91BC9B21F
:1019F400284602B0BDE8F041FFF742BDA36845F2B6
:101A040018021A830E4A0421204602B0BDE8F041B0
:101A1400FFF7CEBD022994BF00210121FFF74AFF41
:101A240048B96B680193074B00932B68064A02215F
:101A34002046FFF7BDFD02B0BDE8F081D655000099
:101A4400DD560000C8560000BF5600002DE9F041E5
:101A5400013986B018BF01210546FFF72BFF40BBB3
:101A6400AB68DFF85480D3F840610446EEB1082C2B
:101A74001BD030460023092203A900F03CFB9DF84B
:101A84001420A968304609230132A03100F033FB49
:101A9400AB68049EA0330093671C23464246002192
:101AA4002846FFF785FD3C46E0E7AB68002283F853
:101AB400A02006B0BDE8F08117570000013910B529
:101AC40018BF01210446FFF7F5FE30B9A368B3F847
:101AD400482160F38202A3F8482110BD013910B5F2
:101AE40018BF01210446FFF7E5FE30B9A268B2F839
:101AF400483143F00403A2F8483110BD013910B550
:101B040018BF01210446FFF7D5FE30B9A368B3F826
:101B1400482160F3C302A3F8482110BD013910B570
:101B240018BF01210446FFF7C5FE30B9A268B2F818
:101B3400483143F00803A2F8483110BD022973B5B7
:101B44000D4694BF0021012104461646FFF7B2FE5C
:101B5400014658B9022D0BD1736801930C4B0093C5
:101B64000C4A336829462046FFF722FD02B070BDB7
:101B7400A368094AD3F8483113F0080F074B18BF7C
:101B84001346074A204602B0BDE87040FFF710BD77
:101B9400C8560000BF56000021570000245700001B
:101BA40028570000013910B518BF01210446FFF77A
:101BB40081FE48B9A368C3F83801E3685B68BDE8EF
:101BC4001040186800F0DBBB10BD00007FB5013980
:101BD40018BF01210446FFF76DFE0546B8B9E36856
:101BE4005B681E68304600F0C7FBB168A268C0B2EB
:101BF400CDE9010164234343B3FBF1F3DBB200936A
:101C0400D2F83831034A29462046FFF7D1FC04B004
:101C140070BD00BF39570000826810B504462AB170
:101C240043690168006998470023A36010BD0EB49E
:101C340003B5039921B104AB01AA019300F076F82E
:101C440002B05DF804EB03B070470A2938B50446C6
:101C54000D4602D10D21FFF7F8FFA3682268591C35
:101C6400A160D554D4E901329A4204D32046BDE898
:101C74003840FFF7D1BF38BD2DE9F84F9846DDE96C
:101C84000A43154682460F460A464FF00109AA4206
:101C94000FD2C14538BFC14613F0010B01D16CB955
:101CA40000240126B8F1010F1BD908F1FF386E4357
:101CB400F8E709F10109B2FBF5F2E8E79B070ED555
:101CC400B8F1000F0CBF30262026A145E9D2013C13
:101CD40031465046FFF7B9FF002CF6D1E0E7202645
:101CE400F3E7B7FBF6F39D42E1D9DFF83C80B7FB9D
:101CF400F6F3504618F8031006FB1377FFF7A5FF19
:101D04003346AB42B6FBF5F6F1D2BBF1000F02D07D
:101D14000CB1A14501D3BDE8F88F20215046013C08
:101D2400FFF793FFF4E700BF8F5B00002DE9F74F47
:101D3400054617468846002900F0428118F8011B21
:101D440049B92B7B002B00F03B81284603B0BDE84A
:101D5400F04FFFF761BF252940F0B780002698F8BF
:101D640000302D2B424608F1010823D0302B24D01B
:101D74002B2B25D000242A2B02F1010123D13B680F
:101D84001A1D1B683A601C440A4613782E2B26D170
:101D940001324FF0000A104610F8011BA1F1300C7B
:101DA400BCF1090F1DD80A2303FB0A13A3F1300A5F
:101DB4000246F0E746F00106D1E746F00206CEE718
:101DC40046F00406CBE711F8013CA3F130000928E2
:101DD400DBD80A2202FB0434303C0A46CBE74FF03E
:101DE400000A12F8011B01F0FB0068289046F8D0A5
:101DF400782909D86F290CD8632962D022D82529DB
:101E040063D0582900F0888098F80030002B95D1D1
:101E140097E770390829F7D801A353F821F000BFD8
:101E24009F1F00000D1E00000D1E00002D1F00004E
:101E34000D1E00000B1F00000D1E00000D1E0000F3
:101E44001D1F0000642901D06929DDD13A68D2F848
:101E54000090111D89EAE9723960A2EBE9724FF032
:101E6400010B092A35DCD34538BFD3462CB1B9F16F
:101E7400000F01DB720700D5013CB30702D5BAF1AC
:101E8400000F03D0F00701D44CBB0024B9F1000FBC
:101E94002DDAC9F100092D212846FFF7D6FE06F0F8
:101EA4000302022A04D1BAF1000F01D11CBB0024A1
:101EB400CDE9004653460A2249462846FFF7DCFE90
:101EC400A2E73B681A1D19783A602846FFF7BDFE61
:101ED4009AE70A230BF1010BB2FBF3F2C1E7A34526
:101EE400D4D220212846013CFFF7AFFECCE771078E
:101EF400D5D52B21D0E7A345DAD230212846013CA1
:101F0400FFF7A3FED2E73968CDE900460A1D3A601F
:101F140053460A220968D0E739680A1D3A60CDE9B8
:101F2400004653461022F5E73B681A1D3A6016F046
:101F34000106D3F8009028D1B9F1000F03D0484628
:101F440002F0E2FE0646B44200D904BB09F1FF39AF
:101F540019F8011F00293FF457AF2846FFF775FE13
:101F6400F6E728460136FFF770FE19F80610002937
:101F7400F7D1A642BFF448AF002C3FF445AF20216F
:101F84002846013CFFF761FEF3E70026EDE7202138
:101F94002846013CFFF759FED5E73B681A1D3A6015
:101FA400302128461C68FFF750FE78212846FFF7A9
:101FB4004CFE00220823CDE90032214610227CE7A2
:101FC40003B0BDE8F08F00BF2DE9F04108B302B3C0
:101FD400D0F800E0BEF1000F1ED0FBB14568D5F883
:101FE4000480B3FBF8F508FB1535BDB942EA010CD2
:101FF4001CF0030F14D1C568A94211D34D1EEC186F
:102004000569AC420CD8DEF80C40A446BDE8F041AA
:1020140060470E20BDE8F0810820FBE70920F9E7BE
:102024001020F7E7F0B5D8B1D0F800C0BCF1000F2C
:1020340018D0CAB14768D7F800E00EF1FF370F4255
:1020440014D1C768B94211D304694D1E0EFB025561
:10205400A5420BD8DCF81040A446BDE8F040604728
:102064000E20F0BD0820FCE70920FAE71020F8E76D
:102074002DE9F84FB0F806A04579D2F800B09DF8E4
:1020840028900AFB05F5043D88460BEB0301A942A1
:1020940003F1040488BFA5EB030BB4FBFAF607466F
:1020A4000AFB1644C2F800B04EB9AAEB04055D451C
:1020B40028BF5D46BBF1000F04D1BDE8F88F3F682F
:1020C400013EF1E7043408EB06003C442A46B9F12A
:1020D400000F0DD02146ABEB050B02F092FDDA4563
:1020E4002E443F6855464FF0000428BF5D46E1E7A3
:1020F40001462046EFE71FB503920122009203AA8E
:10210400FFF7B6FF05B05DF804FB02681368526878
:10211400934291BFD01A80680130801888BFC01ADA
:1021240070472DE9F84303681E685D68AE4284BFBA
:102134008368013317468846C268416894BFAD1B63
:102144009D1BBD42044606FB02110CD37A43404654
:1021540002F057FDA3683E449E4288BF00262368D0
:102164001E60BDE8F88305FB02F94A46404602F0CA
:1021740048FDE26861687D1B6A4308EB090002F0D0
:1021840040FD23681D60ECE7036881681A685B689A
:102194008B4234BF01330023D31A5842584170474D
:1021A400F8B5044600200D46FEF766FB2046FFF70F
:1021B400EBFF10B1237C002B3CD12268A668536846
:1021C4005168B14234BF01310021516030B111680E
:1021D400A068814234BF013100211160E268606867
:1021E400511E072920D8DFE801F004101F141F1F17
:1021F4001F182A78C2542046FFF787FF23689A687D
:10220400824200D29860002415E02A8820F8132026
:10221400F1E72A6840F82320EDE7D5E9006700EBF1
:10222400C300C0E90067E6E7294603FB020002F0A9
:10223400E8FCE0E704240020FEF720FB2046F8BD7C
:1022440037B505460191144682B10020FEF714FB10
:102254002846FFF75AFFA04201990AD3224628468E
:10226400FFF75FFF00240020FEF708FB204603B0C1
:1022740030BD0524F7E710B504460020FEF7FCFA4C
:1022840020680C22002102F0E5FCBDE8104000208B
:10229400FEF7F4BA10B504460020FEF7EDFA204626
:1022A400FFF733FF04460020FEF7E8FA204610BD8E
:1022B4002DE9F04F8368D3F84831C3F340059B07F9
:1022C4008BB0074606D5002211460BB0BDE8F04F8F
:1022D400FFF7A2B9012906D9214A02210BB0BDE8B2
:1022E400F04FFFF765B91F4C1F4EDFF88090DFF801
:1022F40080A0DFF880B0361B1823B6FBF3F6AE429D
:1023040002D10BB0BDE8F08FE36808932368D4F8DA
:1023140008809A6809922046FFF7BCFF099A94F84E
:1023240010E0642303FB00FCBEF1000F0CBFCE469B
:10233400D6465343B3FBF8F3CDE90432BCFBF8F1C2
:10234400089B0191CDE902080093CDE9068E6369EB
:102354005A4608213846FFF72BF901351834CEE7E1
:102364009C540000F0530000085400009F5B0000E0
:10237400A85B0000B45B00000368986870470368BA
:1023840000229A60704700004FF4A06300FB033002
:10239400084B1A18A0F5806030B50344064C03F5C9
:1023A40080619342A1EB030003D253F8045BA5427E
:1023B400F7D030BD000300200ED0ADDE2DE9F04F84
:1023C400374FDFF80C91DFF80CB185B004460025D7
:1023D4000020FEF751FA3E685FFA85FA26B17E685E
:1023E400304B002E08BF1E460020FEF747FA002E91
:1023F40042D05046FFF7C8FF2B465A460821804674
:102404002046FFF7D5F8284A334608212046FFF72F
:10241400CFF809F5807309F2FF42B8F1000F35D007
:10242400642000FB08F04FF48061800ACDE90020AD
:10243400CDE902811D4A08212046FFF7B9F81C4B5B
:102444001B78534529D01B4B1A684FF00043EB40CF
:102454001342194A194B08BF1346194A082120464A
:10246400FFF7A6F80E4A0C2303FB052308219B68FB
:10247400144A2046FFF79CF80135032D07F10C0799
:1024840009F5A069A4D105B0BDE8F08F0092082138
:102494000D4A2046FFF78CF8D1E70C4BDDE700BF6F
:1024A40000120020905C0000BD5C0000CB5C0000CA
:1024B400FC01002000020020A85C00009F5C0000DA
:1024C4001D5D00002A5D0000055D0000975C0000B2
:1024D40000030020B25C000007B58DF807000DF181
:1024E40007010648FFF75CFE0448FFF74DFE08B1FC
:1024F40000F028FD03B05DF804FB00BFF0530000BA
:1025040038B50C4D2B7893B90B4B0C49002808BFF8
:1025140018460388284620F8013F00F0D3FC0446FF
:1025240018B900F0FDFC01232B70204638BD85242A
:10253400FBE700BF74120020B45D0000DD2400003E
:1025440008B500F0FFFC00F005FD0348FFF793FE1B
:10255400024B00221A7008BDF053000074120020D0
:1025640007B50A4601460548FFF76AFE019000F0E8
:10257400D7FC019803B05DF804FB00BFF0530000E2
:10258400F8B505460C4604B9F8BD402C264628BFCC
:102594004026F7B239462846FFF7E2FF0028F9D172
:1025A400A41B3544EFE70000154B07B51A687AB150
:1025B40000221A601B680093009B4FF080430122A5
:1025C400C3F808230F4B587910B95A711B68984700
:1025D4000D4B1A6882B100221A601B680193019B9B
:1025E4004FF080430222C3F80823064B1B680120E6
:1025F40003B05DF804EB184703B05DF804FB00BFBB
:1026040000010040781200200401004000F18040E5
:1026140000F5C040002382B0036003680193019B6E
:1026240002B07047800000F1A040D0F8002722F4E7
:102634004032C0F80027D0F8003743EA0141C0F81F
:1026440000177047054B4FF0FF32072843F820204E
:1026540084BFC01880F84820704700BF8012002053
:1026640010B5174C94F8583043BB04F130032021C3
:10267400FF22013911F0FF0103F8012BF9D1C8B28F
:10268400FFF7E0FF01310C29F9D1042200210D48A4
:1026940002F0E0FA0C4BC02283F8062340221A60B1
:1026A4004FF4BE70FFF7B2FF084B4FF00042C3F87F
:1026B4000423012384F85830002010BD0820FCE7CF
:1026C40080120020D412002000E100E000600040ED
:1026D400034B93F85800003818BF0120704700BF1F
:1026E40080120020F0B5364D2C1894F93040002C9F
:1026F40064DA8C78C4F34004002C0BBF0823002355
:102704000C260826B34201D10420F0BD55F82370ED
:1027140001373FD12E1845F8232086F8303014B9FC
:10272400EA1882F848008A78540713D4D60733D5B8
:10273400820002F1A042D2F8004724F00204C2F859
:102744000047204EC20800F007070124BC40B75CD4
:102754003C43B4548A780C7812F0020225D09B00D2
:1027640003F1804303F5C0430202D3F8101521F4AA
:10277400473121F44071C3F810152404D3F810151F
:1027840002F4F85204F4403422430A43C3F81025F7
:102794000020BAE70133B5E74C7800F5E0724FF05A
:1027A400A046A40046F82240CBE7083B2B4493F80C
:1027B400501041EA841483F85040E9E70820A4E764
:1027C40080120020D412002038B51F4C251895F92A
:1027D4003020072A16DD224492F848309B09032B47
:1027E4000BD14FF0A043D3F81015C14001F0010103
:1027F4000231BDE83840FFF715BF012B0CBF0221A1
:102804000321F6E7D3B2072B1CD8930003F18043CE
:1028140003F5C043D3F8100540F00100C3F81005D8
:1028240002F14000800080B2FFF7F0FE51B195F94B
:10283400303054F823302BB1012303FA02F2034B56
:10284400C3F8042338BD00BF80120020006000409C
:102854002DE9F04F87B000245A4D03944FF4807251
:10286400012102F1804303F5C04390B21B68012BA0
:1028740006D1D5F804330B4202D0FFF7C7FE0C4350
:102884000432B2F5907F4FEA4101EAD14E4B1B6806
:10289400012B0AD14FF4BE70FFF7B8FE4FF0A043EE
:1028A40044F00044D3F81035039314F0FF0F1AD00A
:1028B400464F01260025344210D0AB0003F180437B
:1028C40003F5C043D3F81005D3F8101557F8253095
:1028D40023B1C1F30141C0F3042098470135082D09
:1028E4004FEA4606E7D1002C65DA00214FF0FF33AA
:1028F400CDE90413354D364E4FF00009CA46012781
:102904004FF0A04816F9013B5A1C45D0C3F3C2014D
:1029140006AA5018DCB210F8042C03F03F0B03F0A5
:10292400070307FA03F31A4236D005EB0B02A40996
:1029340092F9302055F8222052B9032C2CD10DF1F4
:10294400100E1EF801C04CEA030C0EF801C001E0A1
:10295400032CF4D00BF5E07110F80C0C58F821108E
:102964001842C1F3014105D0022915D1032C0FD11E
:10297400214604E003290FD1032C09D10221584632
:10298400019209F10109FFF74DFE019A5FFA89F9F5
:1029940012B12146584690470AF1010ABAF1040FD0
:1029A400B0D1B9F1000F06D04FF0A043039AD3F889
:1029B4001035934202D107B0BDE8F08F0393049B16
:1029C400059398E7006000407C610040801200207D
:1029D400D0120020F0B5394B394C1A6885B07AB161
:1029E40000221A601B680093009B637943F008037C
:1029F40003F01202122A637104BF43F020036371CF
:102A0400304B1A687AB100221A601B680193019B4B
:102A1400637943F0040303F01102112A637104BFC4
:102A240043F020036371284B1A68B2B100251D607E
:102A34001B680293029B254B25480422C3F80823F4
:102A44002946C3F800552368984723682148294636
:102A540098470123237105B0F0BD637903F00F0299
:102A64000F2A08D0D80701D4190704D46279920731
:102A7400F1D45B07EFD56279276802F0F30312F013
:102A8400200208D023F0300343F0100363710121C6
:102A94000020B847DFE70E4D95E8030002AE86E854
:102AA400030015E9030043F0100385E80300C4E9BB
:102AB4000222637101213046EBE700BF145102404A
:102AC400DC12002004510240085102400050024030
:102AD400EC120020E412002000F1804000F5E83000
:102AE400002382B0036003680193019B02B0704726
:102AF4001FB53C4B3C4C1A68002A47D04FF48070F9
:102B0400FFF7EAFFA37CDA4302F0010204EB82013F
:102B1400496811B9617C02292DD1607C022818BF53
:102B240004EB83034FF000010BBF01235868637467
:102B340059604FF001038DF80C10E1740EBF02913F
:102B44000290A2748DF80430236801A89847637C2E
:102B5400022B01D101236374237D53B101238DF82A
:102B64000430002302938DF80C30237501A82368E8
:102B7400984704B010BDE37C002BE8D18DF80430F5
:102B8400029301238DF80C30E374DDE7174B1B68C7
:102B9400002BE1D04FF48270FFF79EFF144BC3F873
:102BA4000025A37C627404EB83038DF80C20596820
:102BB4008DF8042021B15A600291236801A8984736
:102BC400A37CDB4303F0010304EB83035A682AB1BB
:102BD400029200225A6001A8236898470023A37434
:102BE400BAE700BF00D10140F412002004D1014033
:102BF40000D0014000F1804382B01A68002A14BF5B
:102C04000120002004D000221A601B680193019B5C
:102C140002B070474FF0804310B5D3F80443610706
:102C240007D54FF48470FFF7E5FF10B10D4B1B6817
:102C34009847A20608D54FF48A70FFF7DBFF18B156
:102C4400094B00201B68984763060AD54FF48C7023
:102C5400FFF7D0FF28B1044BBDE810401B680120EA
:102C6400184710BD0C1300201013002008B5FFF7FF
:102C7400D1FFBDE80840FFF797BC00000E4B984217
:102C840011D0B0F1402F10D003F5003398420ED08C
:102C9400A3F5803398420CD0084A094B90420CBFEC
:102CA4001846002070470748704707487047074890
:102CB40070470748704700BF0030004000200040C4
:102CC40034130020141300201C13002024130020AC
:102CD4002C130020014B1B68184700BF141300205D
:102CE400014B1B68184700BF1C130020014B1B68D5
:102CF400184700BF24130020014B1B68184700BF6E
:102D04002C130020014B1B68184700BF341300200C
:102D140070B50D46FFF7B2FF044608B9002070BD38
:102D24000020FDF7A9FD267916B90123256023713A
:102D34000020FDF7A3FD002EF0D01120EFE70023C3
:102D4400435082B043580193019B02B07047D0F8BE
:102D5400103170B505460C4653B14FF48871FFF736
:102D6400EEFF63795A0703D523680BB10120984716
:102D7400D5F814315BB14FF48A712846FFF7DFFFB1
:102D840063791B0703D523680BB102209847D5F854
:102D94001C315BB128464FF48E71FFF7D0FF607988
:102DA40010F0100002D1236803B19847D5F804311C
:102DB40063B14FF482712846FFF7C1FF01232371E9
:102DC40023681BB1BDE870400320184770BD0000A4
:102DD40001490248FFF7BBBF3C13002000C001407B
:102DE40001490248FFF7B3BF44130020001002401A
:102DF40001490248FFF7ABBF4C13002000200240FA
:102E04007FB52B4B1A68BAB12A4AD2F80413C80703
:102E140012D5002119601B680193019B4FF4807344
:102E2400ADF81030D2F80C358DF81230224B06AACA
:102E340012E903001B689847204A1368DBB11D4B55
:102E4400D3F80413890716D5002111601268029281
:102E5400029A4FF48272ADF81020D3F81825D3F8F3
:102E64004835ADF81430144BADF8122006AA12E917
:102E740003001B689847124B1A68B2B10D4AD2F886
:102E84000423520711D500221A601B680393039B85
:102E94004FF48473ADF8103006AA074B12E903000F
:102EA4001B6807B05DF804EB184707B05DF804FB36
:102EB400002101400020014054130020042101405E
:102EC4000821014010B5124C2278FAB9114B19604F
:102ED400037813F0010F104B1EBFD3F8042542F002
:102EE4000102C3F80425D3F8002222F00102C3F83A
:102EF40000224378094A5B01DBB282F80D334FF4B8
:102F04000053136001232370002010BD8520FCE7CB
:102F14005C1300205813002000D0004000E100E0C2
:102F2400064B00221A6082B01B680193019B044B7C
:102F34000122C3F804231A6002B0704700D1004094
:102F440000D00040024A0123C2F80833536070479E
:102F540000D00040064A0123C2F808335360054BF1
:102F64004FF40052C3F88020034B00221A707047BC
:102F740000D0004000E100E05C130020074B002279
:102F84001A6082B01B680193019B054BD3F80805B6
:102F9400044B1B68C0B202B0184700BF00D1004008
:102FA40000D00040581300200023435082B04358FF
:102FB4000193019B02B070472DE9F047DFF894803C
:102FC40004460E4691464FF48037002500F5A07A5A
:102FD400D4F80433A90001F5A0713B4289B20DD0A5
:102FE4005AF8253053B1C4F848732046C4F808731E
:102FF400FFF7DAFF58F82630E8B298470135A945BB
:103004004FEA4707E4D1D4F80433DA070CD5D4F8EF
:1030140000314BB120464FF48071FFF7C5FF0D4BD3
:10302400042053F826309847D4F804339B070ED570
:10303400D4F804315BB120464FF48271FFF7B4FF3A
:10304400044B052053F82630BDE8F0471847BDE887
:10305400F08700BF60130020024803220021FFF71D
:10306400ABBF00BF00B00040024804220121FFF7BB
:10307400A3BF00BF0040024000F1804000F5E040E3
:10308400002382B0036003680193019B02B0704780
:10309400F0B5504B504C1B6885B0002B3DD04FF41D
:1030A400827094F82E20FFF7E7FF2AB394F82F30AC
:1030B40013BB4A4B1B68002B33D04FF48070FFF7CF
:1030C400DBFF638B94F82D108B424FD922895B1A56
:1030D4009BB292B26383D31A626802EB4303404A01
:1030E400C2F82C36C2F830164FF48270FFF7C4FFD2
:1030F4003C4B01221A6014E0636802932389ADF803
:103104000C30E36800218DF8041023BB237423687A
:1031140001A89847002384F82F3094F82E30002B10
:10312400C7D1314B1B685BB14FF48870FFF7A4FF24
:103134000023237402238DF8043001A823689847E0
:103144002A4B1B68EBB14FF48A70FFF795FF0023FD
:10315400237405B0F0BD208B608363602081E1603F
:10316400002AD4D11E4B01221A60D0E7BCD1E368F7
:10317400012284F82F2013B100226283AFE7638316
:10318400B2E766694FF000470125002EE1D0B6FA98
:1031940086F227FA02F34632920026EA030602F187
:1031A400804303F5E0431B68002BEED01046FFF785
:1031B40063FFA2F58C72D30882F00402C2F380028A
:1031C4008DF808308DF8045023688DF8092001A883
:1031D4009847DAE70471004068130020007100404A
:1031E40000700040047000401071004014710040F1
:1031F40030B4064A52F82040054A002532F810102F
:1032040022F81050234630BC184700BFA4130020F6
:10321400981300200120FFF7EBBF0220FFF7E8BF5F
:103224000320FFF7E5BF0420FFF7E2BF0520FFF707
:10323400DFBF2DE9F347002406460F46904600F50C
:10324400A0754FF48039A246A00000F5A07398B28F
:103254002B686BB1D6F8043309FA04F21A4207D08A
:10326400C5F800A02B680193019BD7E9003198476A
:103274000134A04505F10405E6D102B0BDE8F087AC
:10328400F7B506792F4D0C237343EF183C7A002CC5
:1032940056D1EA504B687B60477903682246D0B226
:1032A400874244D843F30734C878002CA8BF04F1FC
:1032B4006047C3F30732BABF234F02F00F0C07F580
:1032C40061474FEA4010C0B2B4BF07F80C0087F85A
:1032D4000003640901201D4F02F01F0200FA02F2EC
:1032E40047F82420D3F804454A7824F0030402F074
:1032F40003022243C3F80425D3F808458A7824F04E
:10330400030402F003022243C3F808250A78D3F821
:10331400104502F00F0224F00F010A43C3F81025F0
:103324000C2303FB06552872002003B0F0BD900067
:1033340000F5A07001321C50185801900198AEE7B6
:103344000820F2E7BC13002014ED00E000E100E0E7
:10335400036801221A600379034A0C2101FB032349
:1033640002221A72704700BFBC13002037B54FF415
:10337400803400688C407BB101F150039B00002530
:10338400C550C3580193019BC0F8044301F5A871CB
:1033940040F8212003B030BDC0F80843F6E770B40C
:1033A400046840F20116D4F800528E4025EA06055E
:1033B400C4F80052D4F800522B43C4F800329DF8EC
:1033C4000C3070BCFFF7D2BF024903480422FFF758
:1033D40030BF00BFBC1300200080004002490348F6
:1033E4000422FFF726BF00BFC8130020009000404E
:1033F400024903480422FFF71CBF00BFD413002076
:1034040000A00040024903480622FFF712BF00BF94
:10341400E013002000A00140024903480622FFF700
:1034240008BF00BFEC13002000B00140002343504C
:1034340082B043580193019B02B070472DE9F047D5
:103444000E78089F9DF824A004460D469846002E49
:103454005ED1D0F82431D2F800903BB14FF4927190
:10346400FFF7E4FF012363612B7017E0D0F81C31F0
:1034740053B34FF48E71FFF7D9FFD0F824311BB149
:103484004FF492712046EBE713689F4212D918F863
:103494000330C0F81C35136801331360B94535D1C6
:1034A400D4F8043193B34FF482712046FFF7BEFF82
:1034B400002604E00123BAF1000F03D0C3613046B3
:1034C400BDE8F0874361E9E7D0F80831002BE5D087
:1034D4004FF48471FFF7AAFFD0F82431002BCFD129
:1034E40013689F42DAD9D0F8181508F80310136846
:1034F400013313607A1E934205D10223C0F80032CF
:1035040001232362CAE79F42FAD1C7E70126D6E71F
:103514004FF49271FFF78AFF4FF48E71FFF786FF25
:103524004FF48471FFF782FFBAE700002DE9FF47EB
:103534000C4605461F4620463B4B03934FF48271CD
:1035440016469DF83080FFF771FF4FF49271FFF734
:103554006DFF4FF48E71FFF769FF4FF48471FFF72D
:1035640065FF0023C4F800326B6385F82E30012315
:103574002362A3606A6B97421DD9B35CC4F81C35FF
:103584006B6B01336B632B68E3B905F1340A05F106
:103594002E09039B002B1FDC95F82E3053BB002013
:1035A400039B002B15DC0023C4F800350523C4F865
:1035B400003503200DE0B8F1000F01D0E361E2E72C
:1035C4006361E0E740F28623AB60AB68C4F8043380
:1035D400002004B0BDE8F087CDE9007833465246B8
:1035E40049462046FFF72AFF0028D5D0039B013B1C
:1035F4000393CEE7D4F8C434C4F8C434002BCED03B
:1036040013F0010F14BF4FF40240032048F20122CB
:1036140013F0020F18BF104613F0040F48F20223F0
:1036240018BF1846BCE700BFA08601002DE9FF477C
:103634000C4605461E462046354B03934FF48271D3
:103644009046FFF7F3FE4FF49271FFF7EFFE4FF44D
:103654008E71FFF7EBFE4FF48471FFF7E7FE002352
:10366400012E2F686B6385F82E3008BF02224FF0BD
:1036740001030CBFC4F80022C4F8003223622360A3
:10368400AFB905F1340A05F12E09039B002B18DCB0
:1036940095F82E301BBB0020039B002B0EDC00236F
:1036A400C4F800350523C4F80035032006E040F2D1
:1036B4008623AB60AB68C4F80433002004B0BDE8D3
:1036C400F087CDE900674346524649462046FFF756
:1036D400B5FE0028DCD0039B013B0393D5E7D4F867
:1036E400C434C4F8C434002BD5D013F0010F14BF74
:1036F4004FF40240032048F2012213F0020F18BFD6
:10370400104613F0040F48F2022318BF1846C3E70B
:10371400A0860100F0B589B091F82C3001938B6A32
:1037240000934B6A0C4601F134022E310746FFF731
:1037340085FEE8B994F82EE0D4F820C0BEF1000F5D
:103744001DD1207B831E012B19D8626AA3699A427A
:1037540015D1E26963696262CCF340110328A36264
:1037640084F82C1006D1009120463946FFF7DEFE7E
:1037740009B0F0BD39462046FFF758FFF8E704F1D9
:103784000C060FCE03AD0FC533682B60BEF1000FDE
:1037940017D0D7F8C434C7F8C4349A070DD5012319
:1037A4008DF8083000231CF0040F84F82F30DFD18B
:1037B400D4E9003102A89847DAE75B07F2D502237F
:1037C400EEE78DF808E0EDE701490248FFF7A2BFF4
:1037D400F81300200030004002494FF04020FFF76A
:1037E40099BF00BF341400202DE9F84F0579344EF9
:1037F4004FF03C0A0AFB05FA06EB0A079B4697F8CA
:103804002D3080460C469146002B55D12D4B006837
:1038140053F82510FFF77CFA00284FD12168637B09
:1038240087F8383001F5E0724FF0A043B860C7F86C
:1038340004B087F82F0087F8300040F20C6746F890
:103844000A9043F82270626802F5E07C43F82C7019
:10385400D8F80030C3F80815C3F80C25A268C3F8DB
:103864002425B9F1000F1FD043F307310029227B2F
:10387400B4BF154C01F16044C3F30733B8BF03F080
:103884000F074FEA4212A8BF04F56144D2B2B4BF95
:10389400E25584F8002303F01F03012202FA03F324
:1038A40049090A4A42F821303C2303FB05650123F8
:1038B40085F82D30BDE8F88F0820FBE71120F9E7E3
:1038C400F8130020B85D000014ED00E000E100E012
:1038D400026803790521C2F80015044A3C2101FB62
:1038E4000323022283F82D20704700BFF813002021
:1038F4002DE9F74F2D4E0779D0F800902C4BC9F8DD
:1039040008333C2505FB0765C7EB071C95F82F30EA
:103914008E46144606EB8C0C03F0FF0B33B1AB68F8
:10392400C9F80433112003B0BDE8F08F82F004031A
:10393400C3F3800385F82F302A628A46BAE80F0061
:1039440005F10C08A8E80F00DAF80030C8F80030D8
:10395400DEF80430AB62DEF80C206A629EF80110D7
:10396400C9F888159EF80010012917D0A1B9C4F32D
:1039740040143C2101FB0761604681F82C4000940F
:103984004946FFF7D3FD3C235F43F219F359002B5B
:10399400C9D182F82F30C6E70124EAE785F82CB0B4
:1039A40049466046FFF742FEEDE700BFF8130020EA
:1039B40086420400F0B587B004460F461546002140
:1039C400142201A81E4601F045F99DF830308DF807
:1039D4000570002B14BF2022002201A92046029664
:1039E4000495FFF785FF07B0F0BDF0B587B0044636
:1039F4000F4615460021142201A81E4601F02AF99B
:103A04000123002201A920468DF804308DF80570A9
:103A140002960495FFF76CFF07B0F0BD13B5064C92
:103A240023683BB1054B1B68984700232360236838
:103A34000193019B02B010BD0001014070140020ED
:103A4400054B1A78022A04D01878431E584258416C
:103A540070470120704700BF7414002070B5154BE7
:103A64006A469A4206460D4619D3FFF7E9FFC8B1E4
:103A7400114C236823B1114B1A68114B9A4214D08C
:103A8400AEB9A5B90F4810492060FCF7C1FC28B9AC
:103A94000A4B0B4A1A6023680C4A1A6070BD48F23C
:103AA4001950FBE74FF40540F8E70020F6E748F229
:103AB4001750F3E700E00020C4150020BC150020D7
:103AC4006572E54B78140020C01500206169614DD2
:103AD400094B0A4A196891420AD1094A1068094AED
:103AE4000168914204D1002202601A60FCF7ACBC68
:103AF40048F20250704700BFBC1500206572E54BC8
:103B0400C41500206169614D0E4B01221A60D3F87F
:103B14000021002AFBD00022C3F80021D3F8082595
:103B2400D3F80835920544BF6FEA83536FEA935381
:103B3400002B054AB8BF03339B101360014B0122CD
:103B44005A60704700C00040DC150020FFF7DCBF5E
:103B540008B5064801F024F8054B0648196801F039
:103B64001FF8BDE80840FFF7CFBF00BFC05D0000ED
:103B7400DC150020D45D00001FB54FF0C0620023A7
:103B8400CDE902230D480E4A02A9FFF779FB04464A
:103B940008B1FCF761FC0B4B0B49D3F8102507481F
:103BA4000123D2B221FA02F200930021FFF7F7FBBE
:103BB4000248FFF7CDFB204604B010BD2C5E000088
:103BC400513B00000080004000B4C40413B5FEF76C
:103BD4007FFD08B9FEF744FD40F20233ADF804302E
:103BE400094A022301A90D208DF80630FEF77AFD5B
:103BF400044610B1054900F0D3FF01210D20FEF762
:103C0400E3FD204602B010BD553B00003B550000CB
:103C140030B50C4B0C4D0FCB85B06C4684E80F00CF
:103C24001B221A23CDE900234FF0CD63074A0293E8
:103C3400214600232846FFF7D7FD2846FFF748FE14
:103C440005B030BD1C5E0000345E0000CD3C0000B9
:103C540007B51048104B0360104B4360104B836052
:103C6400104BC3600DF1070100238DF8073000F0FD
:103C7400A2F80D4800F094FF9DF807106C2903D0BA
:103C84000A4800F08DFFFEE7094800F089FF03B001
:103C94005DF804FBC8150020DD3C0000353D000044
:103CA400853D0000345E0000D95D0000EE5D00003B
:103CB4000A5E000008B5FFF789FFFFF75DFFFFF715
:103CC400A7FFFFF7C5FFFEE7037813B9014B0122F5
:103CD4001A707047E0150020B0B584B00C4602AFEE
:103CE40011461A4602F1080001337B60C0086B4696
:103CF400A3EBC0039D460DF109008DF808400A4C62
:103D040000F07FFF0022227002AD00927B6807481A
:103D14002A466A21FFF74EFE23781BB1002008379C
:103D2400BD46B0BD20BFF7E7E0150020345E0000BB
:103D34007FB5114C8DF80F101E460023237001230C
:103D440015460E4800930DF10F026A21FFF732FE6B
:103D5400237863B100232370084833462A466A2136
:103D6400FFF743FE237823B1002004B070BD20BFC9
:103D7400EEE720BFF6E700BFE0150020345E000048
:103D840038B50C4639B1044D45F001054FF47A407D
:103D9400A847013CFAD138BD405E000010B428B1F8
:103DA4004468C068A4465DF8044B60474FF0FF3098
:103DB4005DF8044B704708B50A4601230F21FFF74D
:103DC400EDFF08BD4FF48C72002100F043BF20B119
:103DD40000F58C730022984200D1704700F8012B43
:103DE400F9E70000C02AF0B541D0B2F5807F40D099
:103DF400802A40F0C5800A230446036000F10803CA
:103E0400520944F8043F01EB82028A4233D1036829
:103E14000C2B3ED00E2B6CD00A2B26D15A4D5B496D
:103E240000F1A006426955F8044B8768C2F30723E2
:103E34007C40CB5C6340140E10300C5D83EA044379
:103E4400D4B20C5D83EA0463C2F307440C5D83EAD5
:103E5400042350F8044C836063400468C3606340E7
:103E64000361534043618642DCD100208AE00C2385
:103E7400C2E70E23C0E78B784D781B0443EA052381
:103E84000D782B43CD7843EA056344F8043F0431AD
:103E9400BBE73D4C3D4900F1C005C26954F8046BD1
:103EA4008768C2F307237E40CB5C7340160E18303C
:103EB4008E5D83EA0643D6B28E5D83EA0663C2F35F
:103EC40007468E5D83EA062350F80C6C83607340CA
:103ED40050F8086CC360734050F8046C036173407D
:103EE40006684361734083615340C3618542D4D102
:103EF400BBE7254D254900F1E006446A55F8042B3B
:103F04008768C4F307237A40CB5C87695340220E49
:103F140020308A5C83EA0243E2B28A5C83EA026369
:103F2400C4F307428A5C83EA022350F8142C8360AA
:103F3400534050F8102CC360534050F80C2C0361CC
:103F44005340DAB243618A5C7A401F0ECF5D82EA45
:103F54000762C3F30727C3F30743CF5DCB5C82EA51
:103F6400072282EA034350F8042C83615340026819
:103F7400C36153400362634043628642BDD174E728
:103F84006FF01F00F0BD00BF486F0000465E0000E8
:103F94002DE9F04F47680D683B684C688E68C96826
:103FA400DFF89882DFF898E2DFF898C25D407B681A
:103FB4005C40BB685E40FB684B4001688FB04910B1
:103FC4000139009107F1300151F8107C0197EFB2EB
:103FD40051F8200C58F8277087EA00091F0E9548FD
:103FE4005EF8277089EA0709C4F307274FEA146BC0
:103FF4005CF827705EF82BB089EA0709C6F3074717
:10400400203150F8277089EA0709E7B25FFA89F08E
:1040140058F82770029051F83C0C87EA000A2F0EDA
:1040240084485EF827708AEA070AC6F30727C4F3B0
:1040340007445CF827708AEA070AC3F3074750F875
:1040440027708AEA070AF7B2CAF3072058F82770DC
:10405400039051F8380C474087EA0B07C3F3072B4A
:1040640074485CF82BB087EA0B07C5F3074BDBB247
:1040740050F82BB058F8233087EA0B07C7F30740F2
:10408400360E049051F8340C5EF82660C5F307250B
:104094004340684873405CF8256050F8244051F868
:1040A4002C0C059073406340C3F30740069051F80D
:1040B400280C0790F8B20890C3F3072009901D0E4E
:1040C400C9F30740DBB20A900D93009B4FEA1A60D4
:1040D4000B90002B51F8240C0C905FFA8AF4C7F370
:1040E400072B4FEA1966CAF3074AC9F307294FEAAF
:1040F40017675CDC5049039B019811F803C0029BCD
:104104000C5DCB5C43400498085C83EA0C2383EA8F
:104114000043485D059D83EA006311F80B001370AA
:104124006C4084EA00240698089D085C4D5D84EA8E
:104134000044885D079E84EA00640998085C754021
:1041440085EA00250A980C9E085C85EA00450B98D0
:10415400085C85EA00650D98085C704011F80960F8
:1041640080EA062011F80A60C95D80EA064080EA08
:104174000161180A5070180C1B0E9070D370230A3A
:104184005371230C93712B0A53722B0C93720B0AE9
:1041940014711572240E2D0E117353730B0C090E2A
:1041A400D471D5729373D1730FB0BDE8F08F029BB5
:1041B4005EF8255058F823301E4858F824405EF81D
:1041C40027706B40019D6B40039D5CF825505D405A
:1041D400049B50F823305D405EF826305C40059B1C
:1041E4005C405CF82B305C40069B50F823305C400C
:1041F400089B58F823600B9B5EF823305E40079BB6
:104204005E40099B5CF823305E400A9B50F82330E3
:104214005E400D9B58F823307B400C9F7B405CF83C
:1042240029707B4050F82A707B40009F013F009723
:10423400CAE600BF48670000465E0000485F000011
:10424400486B0000486300002DE9F04F47680C6894
:104254003B684E688D68C968DFF89C82DFF89CE291
:10426400DFF89CC25C407B685E40BB685D40FB68D5
:104274004B4001688FB049100139009107F13001BA
:10428400E7B251F8100C58F82770019051F8200C3F
:1042940087EA0009370E96485EF8277089EA07090D
:1042A400C3F307274FEA136B5CF827705EF82BB053
:1042B40089EA0709C5F30747203150F8277089EACE
:1042C4000709DFB25FFA89F058F82770029051F8B5
:1042D400340C87EA000A270E85485EF827708AEABC
:1042E400070AC5F30727C3F307435CF827708AEA74
:1042F400070AC6F3074750F827708AEA070AEFB29D
:10430400CAF3072058F82770039051F8380C474037
:1043140087EA0B07C6F3072B75485CF82BB087EACE
:104324000B07C4F3074BF6B250F82BB058F82660CD
:1043340087EA0B07C7F307402D0E049051F83C0C95
:104344005EF82550C4F30724464069486E405CF883
:10435400245050F8233051F8280C07906E405E40EA
:10436400F8B251F82C3C0890C6F307200593099045
:10437400CAF30743C9F3074006930A904FEA1A6049
:104384000B9051F8240C0C90C6F307400D90009844
:104394000028C9F3072B4FEA17634FEA1664F5B2F6
:1043A4005FFA8AFAC7F307274FEA19695CDC5149B7
:1043B4000398019E11F800C00298085C7040049EA6
:1043C4008E5D80EA0C2080EA06400E5D11F80B40F9
:1043D40080EA06604E5D059D10706E4086EA0426F4
:1043E400069C0C5D86EA0446CC5C099B86EA046460
:1043F400CE5C089BCD5C079B5D400A9BCB5C85EA49
:10440400062585EA03450B9B0C9ECB5C85EA036578
:1044140011F80A307340CE5D83EA06230D9E8E5D4B
:1044240011F8091083EA064383EA0163010A517013
:10443400010C9170000E210AD0705171210C917100
:10444400290A5172290C9172190A14711572240ED9
:104454002D0E13735173190C1B0ED471D5729173F5
:10446400D3730FB0BDE8F08F029E5EF8244058F875
:1044740026601F485EF823305EF829905CF82770A8
:104484007440019E7440039E5CF826607440049E50
:1044940050F82660744058F825605E40059B5E40E5
:1044A4005CF82B305E40069B50F823305E40089B3E
:1044B40058F823500B9B5EF823305D40079B5D400A
:1044C400099B5CF823305D400A9B50F823300C981C
:1044D4005D4058F82A3083EA090343407B400D9835
:1044E400034F57F82070009801387B400090C7E6CE
:1044F40070780000706F000070700000707C000025
:104504007074000010B50C46012C11461A4603D1F4
:10451400FFF73EFD002010BDFFF796FEFAE72DE9F8
:10452400F041B2F5C07FADF5467D06460F4615460F
:104534007BD84FF4D07200215EA800F08BFB18A842
:10454400FFF740FC0DF5C8786BBA2A460024ADF895
:104554008A313946302340468DF88F31ADF8884191
:1045640000F04FFB802304AA08F8053011461935E2
:10457400234602F8013B0133202BFAD14FF4807219
:1045840018A8FFF72FFC002410220021684600F031
:1045940061FBA8460DF287136A46A3F11007117850
:1045A40017F8010F41409F4202F8011BF7D1B8F1FF
:1045B400100F6B4694BFA8EB0808A8F110086A46D0
:1045C400012118A8FFF79EFF07F11003B8F1000FAF
:1045D400E2D10CAB18191022694600F012FB9DF8C9
:1045E4007B3110340133302C8DF87B31CCD14FF436
:1045F40080720CA918A8FFF7F5FB06F1300414AB80
:104604001A46012118A8FFF77DFF3046102214A98D
:10461400103600F0F6FAB442F1D118A8FFF7D7FB30
:1046240000200DF5467DBDE8F0816FF03700F8E716
:104634002DE9F0418CB004460D4630220021684635
:1046440000F008FB4FF0000804F120076E460DEB64
:10465400080304F10F010A780132D2B2084601F8C6
:1046640001290AB9A042F6D122460121384608F1AF
:104674001008FFF747FFB8F1300FE7D16B1E2F3555
:10468400327813F8011F4A40AB4206F8012BF7D1E8
:1046940069464FF480723846FFF7A4FB102208A93C
:1046A400204600F0AEFA00200CB0BDE8F0814FF4D3
:1046B400A072002100F0CEBA10B5044638B1203003
:1046C400FFF785FB04F5A07300229C4200D110BDC6
:1046D40004F8012BF9E72DE9F0418369B3F5C07FB4
:1046E400E0B00446884616462DD8C3F5C0739342FD
:1046F40029D34FF4C0720021684600F0ABFAD4F815
:104704003831A269D4F83C01694698470546E8B9AE
:10471400A769B8F1000F07D036B10DEB0700324698
:10472400414600F06EFA37443A4669466846FFF758
:10473400F6FE69462046FFF77BFF012323612846E6
:1047440060B0BDE8F0816FF03705F8E76FF033052E
:10475400F5E7F0B58BB004460F461646002120223B
:1047640002A81D4600F076FA04F120000190FFF73C
:1047740029FB119BA36142F21073E36102A9C4E90E
:104784004E7601984FF48072FFF72CFB109A29465D
:104794002046FFF7A0FF0BB0F0BD13B53024019401
:1047A400049C0094FFF7D5FF02B010BD0C4B1B789E
:1047B400062B10D10B4B1B681A070CD10A4B186837
:1047C40000F0F003302B08D000F0E000A0F140032B
:1047D400584258417047002070470120704700BF7D
:1047E400E00F00F0E40F00F0E80F00F0094B1B7835
:1047F400062B0CD1084B1B681A0708D1074B186805
:1048040000F0F000A0F130035842584170470020F6
:10481400704700BFE00F00F0E40F00F0E80F00F075
:1048240008B5FFF7C3FF28B17D4B7E4A1B68C3F36D
:1048340004231360FFF7DAFF10B17B4B7B4A1A6045
:10484400FFF7B4FF28B17A4B7A4A1B68C3F34233AB
:104854001360FFF7CBFF20B1774AD36823F080734E
:10486400D360FFF7A3FF40B14FF080430022C3F8A9
:104874000C21C3F81021C3F83825FFF7B7FF10B196
:104884006E4B03221A60FFF7B1FF40B16C4B052257
:104894001A6001229A6700229A603F225A60694B8B
:1048A4001B78062B50D1684B1B6819074CD1674BFA
:1048B4001B6803F0F003502B46D14FF08052644B39
:1048C400D2F80414C3F82015D2F80814C3F8241538
:1048D400D2F80C14C3F82815D2F81014C3F82C1508
:1048E400D2F81414C3F83015D2F81814C3F83415D8
:1048F400D2F81C14C3F84015D2F82014C3F8441598
:10490400D2F82414C3F84815D2F82814C3F84C1567
:10491400D2F82C14C3F85015D2F83014C3F8541537
:10492400D2F83414C3F86015D2F83814C3F86415F7
:10493400D2F83C14C3F86815D2F84014C3F86C15C7
:10494400D2F84424C3F87025FFF730FF28B1414B57
:10495400414A1B6803F04F031360FFF727FF48B178
:104964004FF08043D3F80024D20744BF6FF0010214
:10497400C3F80024394B1B68062B08D1384B1B683D
:10498400062B01BF374A136843F480631360364A29
:10499400D2F8883043F47003C2F88830BFF34F8FE5
:1049A400BFF36F8F4FF01023D3F80022002A03DBEC
:1049B400D3F80432002B2FDA2C4B0122C3F8042540
:1049C400D3F80024002AFBD04FF010221521C2F89E
:1049D4000012D3F80024002AFBD04FF01023152234
:1049E400C3F80422214B1A46D3F800140029FBD043
:1049F4000021C3F80415D2F80034002BFBD0BFF318
:104A04004F8F19491A4BCA6802F4E0621343CB6012
:104A1400BFF34F8F00BFFDE7164B174A1A6008BD5E
:104A2400240300104035014074C007400DF0ADBAB6
:104A3400440200103C050040F0ED00E0A0050040F9
:104A440010560040E00F00F0E40F00F0E80F00F013
:104A540000C0004058020010E40E00403001001075
:104A6400340100103C17004000ED00E000E001407C
:104A74000400FA05300000200090D0037F2805D8F8
:104A8400034B185C034B5B5C184070470020704775
:104A94007C800000FC800000A0F16103192B98BF0A
:104AA40020387047A0F14103192B98BF203070477C
:104AB4007F2805D8034B185C034B5B5C1840704798
:104AC400002070477C800000FC800000A0F161039E
:104AD400192B98BF20387047A0F14103192B98BFB8
:104AE400203070477F299ABF017001206FF02E009B
:104AF40070475AB10A787F2A0AD800B102600021AF
:104B040019605960501A18BF01207047002070477F
:104B14006FF02E00704738B504460846A26842B1CB
:104B2400236861685D1C8D4208BF00208B4208D257
:104B3400D054E3682BB121686268914201D22146C6
:104B4400984723680133236038BD70B54C1E09D4DF
:104B54001646C5B229463046FFF7DDFF013CB4F1E5
:104B6400FF3FF7D170BD10F0100F08D108B510F455
:104B7400007F14BF30202020FFF7E7FF08BD7047F7
:104B840008B5034B5B689B681B68984708BD00BF6A
:104B94003400002008B50821FFF7F2FF08BD00002B
:104BA4000FB410B586B008AB53F8044B059300233B
:104BB40003936FF000430293084B049300F0EEFB61
:104BC400059A214601A800F0CFF8044600F0E7FB5F
:104BD400204606B0BDE8104004B07047D50300007D
:104BE400037853B159B10144034613F8012F12B1AC
:104BF4008B42FAD10B46181A70470346FBE703466B
:104C0400F9E7844640EA010313F0030F18D1844600
:104C1400202A0BD32DE9F007B1E8F807A0E8F8073C
:104C2400A2F12002202AF7D2BDE8F007042A07D314
:104C340051F8043B40F8043BA2F10402042AF7D2E1
:104C4400002A05D011F8013B00F8013B013AF9D1E3
:104C5400604670478446002A2DD010F0030F04D01C
:104C640000F8011B013A26D0F7E7C9B241EA012155
:104C740041EA0141202A12D3A2F120022DE9F003D6
:104C84000B460C460D460E460F4688468946A0E85C
:104C9400FA03203AFBD2BDE8F00320320BD0042AF9
:104CA40005D340F8041B043A05D0042AF9D200F8CD
:104CB400011B013AFBD16046704710F0030F19D174
:104CC40011F0030F16D12DE970004FF001364FF0AB
:104CD400803350F8044B51F8045BAC4205D1A4EB8B
:104CE400060525EA04051D40F3D0A0F10400A1F156
:104CF400040170BC10F8012B11F8013BD21A01D148
:104D0400002BF7D11046704700F1010110F0030F9A
:104D140011D010F8012B002A23D010F0030F0AD071
:104D240010F8012B002A1CD010F0030F03D010F848
:104D3400012B002A15D02DE970004FF001324FF0FD
:104D4400803350F8044BA4EB020525EA04051D400A
:104D540000D1F6E7A0F1040070BC10F8012B002A82
:104D6400FBD1A0EB010070472DE9F04F89B0074655
:104D74000392002303600C4614F8011B002900F081
:104D8400FA82DFF814B5E9E2002507E05E2868D16D
:104D940045F4805501E045F040051C46234613F8D0
:104DA400010B3028F2D81F2837D9A0F12002102A8D
:104DB40033D801A151F822F09B4D00001F4E000092
:104DC4001F4E0000014E00001F4E00001F4E000049
:104DD4001F4E0000074E00001F4E00001F4E000033
:104DE4001F4E00000D4E00001F4E0000134E000029
:104DF4001F4E00001F4E0000194E000045F08005B4
:104E0400CBE745F40045C8E745F02005C5E745F084
:104E14001005C2E745F40075BFE72A2821D1039A9B
:104E2400111D0391D2F800A0BAF1000FBCBFCAF162
:104E3400000A45F010051878A31C2AEAEA7A2E28FD
:104E440026D00021742847D07A2845D06C2800F059
:104E5400A8804C2800F0AB80682800F0B8801C467D
:104E64003DE0A0F13002D2B2092A88BF4FF0000A17
:104E7400E3D84FF0000A0AEB8A0A303800EB4A0AFA
:104E840013F8010BA0F13002D2B2092AF3D9D4E706
:104E940018782A280AD1039A111D039111685878A9
:104EA40002330029CEDB45F48075CBE70133A0F152
:104EB4003002D2B2092A88BF0021F4D8002101EBC4
:104EC4008101303800EB410113F8010BA0F13002ED
:104ED400D2B2092AF3D9E4E71C4614F8010B0028DE
:104EE40000F05582A0F12503DBB2532B62D8A0F168
:104EF4002503532B5ED8DFE813F076005D005D00D8
:104F04005D005D005D005D005D005D005D005D00B5
:104F14005D005D005D005D005D005D005D005D00A5
:104F24005D005D005D005D005D005D005D005D0095
:104F34005D005D005D005D005D005D005D005D0085
:104F44005D005D005D005D005D005D005D005D0075
:104F54005D005D005D005D005D005D005D005D0065
:104F6400EB005D005D005D005D005D005D005D00C7
:104F74005D005D005D007B0020015D005D005D0063
:104F84005D0020015D005D005D005D0095000E0187
:104F9400D1005D005D00A6005D0019015D005D00AB
:104FA400ED001C4614F8010B45F0010597E745F0A8
:104FB40001051C46B44B1E68002E00F0CC8103ABE7
:104FC4000193009153462A463946B047C3E1187805
:104FD400682803D05C1C45F0040580E745F008050B
:104FE4009C1C58787BE725213846FFF794FDB2E1F5
:104FF400039B1A1D03921E780AF1FF3A3A46514662
:105004002846FFF7B0FD31463846FFF784FDA94630
:1050140019F0100F00F09F813A4651462020FFF707
:1050240094FD98E115F0080F06D03A68039B191D0A
:1050340003911B681A708EE1039B1A1D03921B686F
:105044003A681A6087E1039B1A1D0392D3F8008023
:105054008E4BB8F1000F08BF9846464625F40079F8
:1050640015F4807F15D04046FFF7BAFD0546AAEB3C
:10507400050A3A4651464846FFF775FD002DC7D04C
:10508400454416F8011B3846FFF745FDB542F8D1F3
:10509400BEE74046FFF738FE0546E8E7039B1A1DC6
:1050A40003921B6815F0800F0CBF0026232645F4DD
:1050B400807508211A46002B00F0298105AB4FF0BA
:1050C400000805F4005CA64660468C460146D1E023
:1050D40045F4005515F0800F1BD043F2780643F2D7
:1050E4005803782818BF1E4615F4807F01D025F494
:1050F400007515F4804F32D0039B1A1D03921B6870
:1051040015F0040F1FD01BB2002B20DA5B422D26B2
:105114002DE00026E8E715F0800F0CBF00263026AE
:1051240015F4807FE5D025F40075E2E715F4807F5F
:1051340007D025F400750026DBE745F480450026FA
:10514400D7E70026D5E715F0080FDDD0DBB215F060
:10515400200F60D115F0400F18BF202607E0039BF5
:105164001A1D03921B6815F0040F4FD09BB215F45F
:10517400807F14BF25F4007501215838202800F2DF
:10518400AE8001A252F820F0B9500000E3520000B2
:10519400E3520000E3520000E3520000E352000037
:1051A400E3520000E3520000E3520000E352000027
:1051B400E3520000E352000047520000E3520000B3
:1051C400E3520000E3520000E352000047520000A3
:1051D400E3520000E3520000E3520000E3520000F7
:1051E400E35200001F520000B9500000E3520000D7
:1051F400E3520000E3520000E35200004752000073
:10520400E3520000E3520000B950000015F0080F0B
:10521400ADD0DBB2ABE72B26A9E71A464FF0000866
:10522400002B5ED005A84FF0000803F007033033CD
:1052340000F8013B08F10108D2081346002AF4D112
:105244004FE018464FF00008002B4AD04FF00008FA
:1052540005F4004E4FF02C0973468E4619462FE094
:1052640002F00F000A4C205C03F8010B08F101085E
:10527400120906D00029F3D002F00F00054C205C7F
:10528400F2E7744661462CE0E4150020D082000069
:10529400B0820000C0820000CDCCCCCC08AB03EBC4
:1052A400080CABFB0032D20802EB8203A0EB4303F1
:1052B40030330CF80C3C08F1010809280DD91046CC
:1052C4000029EBD008F00303032BE7D108AB4344D8
:1052D40003F80C9C08F10108E0E7714601E04FF087
:1052E4000008A1EB080121EAE179AAEB090AAAEB7B
:1052F400080AFF2E0ED9AAF1020AC6F3072138467E
:10530400FFF709FCF1B23846FFF705FC04E04FF063
:105314000008E6E7002E3DD13A4651462846FFF7FD
:1053240022FC3A4649463020FFF70FFCB8F1000F43
:105334000EDD0DF1140908F1FF38C84498F8001087
:1053440046463846FFF7E7FBC14508F1FF38F5D17B
:1053540015F0100F09D114F8011B61B125293FF490
:1053640013AD3846FFF7D7FBF5E73A465146202000
:10537400FFF7EBFBEFE7BB682BB13A6879688A4229
:105384003CBF00219954386809B0BDE8F08F4FF054
:10539400FF30F9E70AF1FF3AB4E700BF70477047FE
:1053A40010B504460146172000F008F800280CBF89
:1053B40020464FF0FF3010BD7047704738B50446A3
:1053C4000D46FFF7F9FF074B1D6044F08004064BC0
:1053D4001C601A461368002BFCD1FFF7EEFF014B4B
:0C53E400186838BDEC150020E81500200A
:1053F000681200202412002040000000010000007C
:0854000000000000A85D00009F
:08540800DD030000D9030000E0
:1054100000000000B4550000000000007C5B0000AC
:10542000000000006C5B0000000000005C5B0000FE
:10543000000000004C5B000000000000585C000011
:0854400000000000985D00006F
:10544800000000000000000035100000000000000F
:045458000000000050
:10545C000000000000000000000000000000000040
:0C546C0000000000000000000000000034
:1054780000000000000000000338FDD8704700005D
:105488000000FFFFDEC0ADDEFE011EF1DEC0ADDEB6
:10549800FF011EF142616420617267756D656E746B
:1054A80020636F756E740025730D0A092D20456CF5
:1054B800656D656E742073697A653A092564202BD9
:1054C800202564206279746573206F6620646562A4
:1054D800756720696E666F726D6174696F6E0D0A0B
:1054E800092D2055736167653A09257525252028FA
:1054F8002575206F7574206F6620257520656C658D
:105508006D656E7473290D0A092D204D6178696DDA
:10551800756D3A092575252520282575206F757420
:10552800206F6620257520656C656D656E7473291E
:105538000D0A0D0A0062616C6C6F6300436F6D6D3C
:10554800616E647320666F722042414C4C4F432059
:105558006D616E6167656D656E74007374617475F5
:1055680073005072696E7420737461747573206F60
:10557800662062616C6C6F6320696E7374616E6320
:1055880065732E000000000094550000635500006C
:105598006A550000000000003911000000000000FA
:1055A8000000000000000000000000003D55000061
:1055B800445500008C550000391100001B5B256420
:1055C80043001B5B256444001B5B256441001B5B97
:1055D800256442002563006E6F74207465726D69DE
:1055E8006E617465643A2025630A003A20636F6D22
:1055F8006D616E64206E6F7420666F756E64002D29
:1056080068002D2D68656C7000506C6561736520AD
:1056180073706563696679206120737562636F6D65
:105628006D616E642E0A005461622066756E637443
:10563800696F6E3A20636F6D6D616E647320636F7E
:10564800756E746572206F766572666C6F776564C7
:105658002E0A002020000A25732573000A257300EE
:105668004F7074696F6E733A0A002020252D2A73D3
:105678003A0053686F7720636F6D6D616E642068C0
:10568800656C702E002020257325732573005375D3
:1056980062636F6D6D616E64733A0A0025733A2018
:1056A80077726F6E6720706172616D6574657220C4
:1056B800636F756E740A0025733A257325730A00A3
:1056C80020756E6B6E6F776E20706172616D657498
:1056D80065723A20004E6F20726573706F6E736545
:1056E8002066726F6D20746865207465726D696ECE
:1056F800616C2C20617373756D6564203830783265
:10570800342073637265656E2073697A650A005B7D
:105718002533645D2025730A006F6E006F6666008E
:105728004563686F207374617475733A2025730A32
:10573800004C6F7374206C6F67733A2025750A4D9F
:105748006178206C6F67207175657565207574695F
:105758006C697A6174696F6E3A2025752525205B1E
:1057680025752F25755D0A00726573697A65004392
:105778006F6E736F6C652067657473207465726DE6
:10578800696E616C2073637265656E2073697A65F2
:10579800206F7220617373756D65732038302069CE
:1057A8006E20636173652074686520726561646F3B
:1057B8007574206661696C732E204974206D757349
:1057C8007420626520657865637574656420616618
:1057D8007465722065616368207465726D696E61B5
:1057E8006C207769647468206368616E67652074EB
:1057F8006F20656E7375726520636F72726563746E
:10580800207465787420646973706C61792E0068FF
:105818006973746F727900436F6D6D616E6420688F
:105828006973746F72792E00636C690055736566CD
:10583800756C2C206E6F7420556E69782D6C696BB1
:105848006520434C4920636F6D6D616E64732E0053
:10585800636C65617200436C656172207363726585
:10586800656E2E0064656661756C740041737375AE
:105878006D652038302063686172732073637265C8
:10588800656E20776964746820616E642073656E44
:105898006420746869732073657474696E67207412
:1058A8006F20746865207465726D696E616C2E0076
:1058B800636F6C6F727300546F67676C6520636FFA
:1058C8006C6F7265642073796E7461782E006563FD
:1058D800686F00546F67676C6520434C49206563A7
:1058E800686F2E00737461747300434C492073749D
:1058F80061746973746963732E00726573657400EB
:10590800526573657420434C4920737461746973DC
:105918007469637320666F7220746865204C6F67C2
:10592800676572206D6F64756C652E0073686F779C
:105938000047657420434C4920737461746973741B
:1059480069637320666F7220746865204C6F67679F
:105958006572206D6F64756C652E004469736162B1
:105968006C6520434C49206563686F2E2041727234
:105978006F777320616E6420627574746F6E733A0A
:10598800204261636B73706163652C2044656C65AC
:1059980074652C20456E642C20486F6D652C204959
:1059A8006E7365727420617265206E6F7420686111
:1059B8006E646C65642E00456E61626C6520434CB4
:1059C80049206563686F2E0044697361626C6520C5
:1059D800636F6C6F7265642073796E7461782E00E2
:1059E800456E61626C6520636F6C6F7265642073CD
:1059F800796E7461782E001B5B6D001B5B48001B81
:105A08005B324A001B5B3F336C001B5B366E002029
:105A18002D200000000000000338FDD870472D68D5
:105A28002C202D2D68656C7000000000000000001F
:105A38003C5A0000B8580000BF580000B45A000093
:105A4800ED180000D6580000DB580000EC5A0000A2
:105A5800411B0000EC580000F25800007C5A00007E
:105A68002D190000000000000000000000000000E8
:105A78000000000000000000845A000002590000E5
:105A88000859000000000000A91B0000345900005C
:105A98003959000000000000D11B00000000000080
:105AA80000000000000000000000000000000000EE
:105AB800BC5A000024570000D05900000000000024
:105AC800C11A000021570000E8590000000000003A
